:03000000020006F5
:03005F0002000399
:0300030002006296
:100062009000C8120072A290B39200929080F12286
:20007200AE82AF837C007D00C3EC9EED64808FF063F08095F050147A647B001ABAFF011B72
:0C009200EA4B70F70CBC00E00D80DD2292
:06003500E478FFF6D8FD9F
:200013007900E94400601B7A009000A2780075A040E493F2A308B8000205A0D9F4DAF275B2
:02003300A0FF2C
:20003B007800E84400600A790075A040E4F309D8FC7800E84400600C7900904000E4F0A345
:04005B00D8FCD9FAFA
:0D00060075812012009EE582600302000358
:04009E007582002245
:00000001FF
