:03000000020006F5
:03005F0002000399
:0300030002006296
:200062007F058F061FEE60547E008EF005F07401800225E0D5F0FBF4F59063A01090006477
:20008200C007C006120129D006D0070EC3EE6480948840D61EEE20E7C98EF005F0740180CF
:2000A2000225E0D5F0FBF4F59063A010900064C007C006120129D006D00780D87F058F0610
:2000C2001FEE609C7E008EF005F07401800225E0D5F0FBFDC454F04205EDF4F59063A010A3
:2000E200900064C007C006120129D006D0070EC3EE6480948440CF1EEE20E7C28EF005F082
:200102007401800225E0D5F0FBFDC454F04205EDF4F59063A010900064C007C0061201299F
:07012200D006D00780D122B6
:20012900AE82AF837C007D00C3EC9EED64808FF063F08095F050147A647B001ABAFF011BBA
:0C014900EA4B70F70CBC00E00D80DD22DA
:06003500E478FFF6D8FD9F
:200013007900E94400601B7A00900159780075A040E493F2A308B8000205A0D9F4DAF275FA
:02003300A0FF2C
:20003B007800E84400600A790075A040E4F309D8FC7800E84400600C7900904000E4F0A345
:04005B00D8FCD9FAFA
:0D000600758107120155E5826003020003B9
:04015500758200228D
:00000001FF
